:1000000045C000004BC000004AC000005CC00000BA
:1000100045C0000043C0000041C000003FC00000D8
:100020003DC000003BC0000039C0000037C00000E8
:1000300035C0000033C0000031C000002FC00000F8
:100040002DC000002BC0000029C0000027C0000008
:1000500025C0000023C0000021C000001FC0000018
:100060001DC000001BC0000019C0000017C0000028
:1000700015C0000013C0000011C000000FC0000038
:100080000DC000000BC0000009C0000011241FBEFD
:10009000CFEFD0E1DEBFCDBF2ED03DC0B1CF1F929C
:1000A0000F920FB60F9211248F938BB3880F8BBBD7
:1000B0008BB3811102C081E08BBB8F910F900FBE7B
:1000C0000F901F9018951F920F920FB60F92112448
:1000D0008F939F938BB390E0959587958BBB8BB354
:1000E000811102C080E88BBB9F918F910F900FBE52
:1000F0000F901F9018958FEF8ABB81E08BBB80EF2C
:1001000081BBEAE6F0E080818862808389B78660FF
:0A01100089BF7894FFCFF894FFCF69
:00000001FF
