:1000000045C0000053C0000051C000004FC00000B8
:100010004DC000004BC0000049C0000047C00000B8
:1000200045C000004DC0000041C000003FC00000BE
:100030003DC000003BC0000039C0000037C00000D8
:1000400035C0000033C0000031C000002FC00000E8
:100050002DC000002BC0000029C0000027C00000F8
:1000600025C0000023C0000021C000001FC0000008
:100070001DC000001BC0000019C0000017C0000018
:1000800015C0000013C0000011C0000011241FBEE5
:10009000CFEFD0E1DEBFCDBF21E0A0E0B1E001C0F5
:1000A0001D92A130B207E1F72CD030C0A9CF82E970
:1000B00083BD14BC8DE085BD87B7806887BF089578
:1000C0001F920F920FB60F9211248F939F9314BC1F
:1000D00080910001882329F082E983BD10920001FC
:1000E00005C084EF83BD81E08093000195B381E07A
:1000F000892785BB9F918F910F900FBE0F901F9006
:1001000018958FEF84BBD3DF7894FFCFF894FFCF9F
:00000001FF
