:1000000045C000004BC0000049C0000047C00000D0
:1000100045C0000043C0000041C000003FC00000D8
:100020003DC000003BC0000039C0000037C00000E8
:1000300035C0000033C0000031C000002FC00000F8
:100040002DC000002BC0000029C0000027C0000008
:1000500025C0000023C0000021C000001FC0000018
:100060001DC000001BC0000019C0000017C0000028
:1000700015C0000013C0000011C000000FC0000038
:100080000DC000000BC0000009C0000011241FBEFD
:10009000CFEFD0E1DEBFCDBF9DD0DFC0B1CF20E03C
:1000A00030E0281739074CF4EFECF7E03197F1F71F
:1000B00000C000002F5F3F4FF4CF08958FEF87BB44
:1000C00087B3877F87BB88B3816088BB82E58DB9A2
:1000D00008958FB9779BFECF089598B321E030E063
:1000E00002C0220F331F8A95E2F72095292328BBEF
:1000F000089598B321E030E002C0220F331F8A95A3
:10010000E2F7292B28BB089580E0E7DF89E0E1DFF3
:100110008FEFDFDF80E0EDDF80E0DFDF8AE0D9DF37
:100120008FE0D7DF80E0E5DF80E0D7DF8BE0D1DF55
:1001300083E0CFDF80E0DDDF80E0CFDF8CE0C9DF70
:1001400081E0C7DF80E0D5CF0895CF93DF93D82F2C
:10015000C62F80E0C2DF8D2FBCDF8C2FBADF80E09E
:10016000C8DFDF91CF9108951F93CF93DF939C0158
:100170002A513C4F253F3A4248F5992334F4919552
:100180008195910921E030E002C020E030E068EE86
:1001900073E03CD0462F64E670E038D0162F6AE05A
:1001A00070E034D0D62FC82F232B21F06AE084E0F2
:1001B000CCDF03C0642F84E0C8DF612F83E0C5DF9C
:1001C0006D2F82E0C2DF6C2F81E0BFDFDF91CF9126
:1001D0001F910895CF9381E087BB70DF95DFC1E069
:1001E000C53050F480E079DF8C2F73DF80E071DF61
:1001F00080E07FDFCF5FF4CF84E690E050DF8CE1DA
:100200009FE1B2DF81E090E0CF91089597FB072E48
:1002100016F4009406D077FD08D00BD007FC05D06B
:100220003EF4909581959F4F0895709561957F4F0D
:100230000895AA1BBB1B51E107C0AA1FBB1FA6172D
:10024000B70710F0A61BB70B881F991F5A95A9F77F
:0E02500080959095BC01CD010895F894FFCFE4
:00000001FF
